{
  "address": "0xCf7Ed3AccA5a467e9e704C703E8D87F634fB0Fc9",
  "abi": [
    {
      "inputs": [
        {
          "internalType": "address",
          "name": "vrfCoordinatorV2",
          "type": "address"
        },
        {
          "internalType": "uint256",
          "name": "entryFee",
          "type": "uint256"
        },
        {
          "internalType": "bytes32",
          "name": "gasLane",
          "type": "bytes32"
        },
        {
          "internalType": "uint64",
          "name": "subscriptionId",
          "type": "uint64"
        },
        {
          "internalType": "uint32",
          "name": "callBackGassLimit",
          "type": "uint32"
        },
        {
          "internalType": "uint256",
          "name": "interval",
          "type": "uint256"
        }
      ],
      "stateMutability": "nonpayable",
      "type": "constructor"
    },
    {
      "inputs": [
        {
          "internalType": "address",
          "name": "have",
          "type": "address"
        },
        {
          "internalType": "address",
          "name": "want",
          "type": "address"
        }
      ],
      "name": "OnlyCoordinatorCanFulfill",
      "type": "error"
    },
    {
      "inputs": [],
      "name": "Raffle_NotOpen",
      "type": "error"
    },
    {
      "inputs": [
        {
          "internalType": "uint256",
          "name": "currentBalance",
          "type": "uint256"
        },
        {
          "internalType": "uint256",
          "name": "numPlayers",
          "type": "uint256"
        },
        {
          "internalType": "uint256",
          "name": "raffleState",
          "type": "uint256"
        }
      ],
      "name": "Raffle_UpKeepNotNeeded",
      "type": "error"
    },
    {
      "inputs": [],
      "name": "Raffle__NotEnoughEthEntered",
      "type": "error"
    },
    {
      "inputs": [],
      "name": "Raffle__TransferFailed",
      "type": "error"
    },
    {
      "anonymous": false,
      "inputs": [
        {
          "indexed": true,
          "internalType": "address",
          "name": "player",
          "type": "address"
        }
      ],
      "name": "RaffleEnter",
      "type": "event"
    },
    {
      "anonymous": false,
      "inputs": [
        {
          "indexed": true,
          "internalType": "uint256",
          "name": "requestId",
          "type": "uint256"
        }
      ],
      "name": "RequestedRafleWinner",
      "type": "event"
    },
    {
      "anonymous": false,
      "inputs": [
        {
          "indexed": true,
          "internalType": "address",
          "name": "winner",
          "type": "address"
        }
      ],
      "name": "WinnerPicked",
      "type": "event"
    },
    {
      "inputs": [
        {
          "internalType": "bytes",
          "name": "",
          "type": "bytes"
        }
      ],
      "name": "checkUpkeep",
      "outputs": [
        {
          "internalType": "bool",
          "name": "upkeepNeeded",
          "type": "bool"
        },
        {
          "internalType": "bytes",
          "name": "",
          "type": "bytes"
        }
      ],
      "stateMutability": "view",
      "type": "function"
    },
    {
      "inputs": [],
      "name": "enterRaffle",
      "outputs": [],
      "stateMutability": "payable",
      "type": "function"
    },
    {
      "inputs": [],
      "name": "getBalance",
      "outputs": [
        {
          "internalType": "uint256",
          "name": "",
          "type": "uint256"
        }
      ],
      "stateMutability": "view",
      "type": "function"
    },
    {
      "inputs": [],
      "name": "getEntranceFee",
      "outputs": [
        {
          "internalType": "uint256",
          "name": "",
          "type": "uint256"
        }
      ],
      "stateMutability": "view",
      "type": "function"
    },
    {
      "inputs": [],
      "name": "getInterval",
      "outputs": [
        {
          "internalType": "uint256",
          "name": "",
          "type": "uint256"
        }
      ],
      "stateMutability": "view",
      "type": "function"
    },
    {
      "inputs": [],
      "name": "getLatestTimeStamps",
      "outputs": [
        {
          "internalType": "uint256",
          "name": "",
          "type": "uint256"
        }
      ],
      "stateMutability": "view",
      "type": "function"
    },
    {
      "inputs": [],
      "name": "getNumWords",
      "outputs": [
        {
          "internalType": "uint256",
          "name": "",
          "type": "uint256"
        }
      ],
      "stateMutability": "pure",
      "type": "function"
    },
    {
      "inputs": [],
      "name": "getNumberOfPlayers",
      "outputs": [
        {
          "internalType": "uint256",
          "name": "",
          "type": "uint256"
        }
      ],
      "stateMutability": "view",
      "type": "function"
    },
    {
      "inputs": [
        {
          "internalType": "uint256",
          "name": "index",
          "type": "uint256"
        }
      ],
      "name": "getPlayer",
      "outputs": [
        {
          "internalType": "address",
          "name": "",
          "type": "address"
        }
      ],
      "stateMutability": "view",
      "type": "function"
    },
    {
      "inputs": [],
      "name": "getRaffleState",
      "outputs": [
        {
          "internalType": "enum Raffle.RaffleState",
          "name": "",
          "type": "uint8"
        }
      ],
      "stateMutability": "view",
      "type": "function"
    },
    {
      "inputs": [],
      "name": "getRecentWinner",
      "outputs": [
        {
          "internalType": "address",
          "name": "",
          "type": "address"
        }
      ],
      "stateMutability": "view",
      "type": "function"
    },
    {
      "inputs": [],
      "name": "getRequestConfirmations",
      "outputs": [
        {
          "internalType": "uint256",
          "name": "",
          "type": "uint256"
        }
      ],
      "stateMutability": "pure",
      "type": "function"
    },
    {
      "inputs": [
        {
          "internalType": "bytes",
          "name": "",
          "type": "bytes"
        }
      ],
      "name": "performUpkeep",
      "outputs": [],
      "stateMutability": "nonpayable",
      "type": "function"
    },
    {
      "inputs": [
        {
          "internalType": "uint256",
          "name": "requestId",
          "type": "uint256"
        },
        {
          "internalType": "uint256[]",
          "name": "randomWords",
          "type": "uint256[]"
        }
      ],
      "name": "rawFulfillRandomWords",
      "outputs": [],
      "stateMutability": "nonpayable",
      "type": "function"
    }
  ],
  "transactionHash": "0x892765b5e39819968396b9c06c79dfdc91f7093fc4747c1b8f7acb6bacf5b50f",
  "args": [
    "0x5FbDB2315678afecb367f032d93F642f64180aa3",
    "100000000000000000",
    "0x79d3d8832d904592c0bf9818b621522c988bb8b0c05cdc3b15aea1b6e8db0c15",
    "1",
    "500000",
    "30"
  ],
  "numDeployments": 1,
  "solcInputHash": "a1772cd22bea90975b72aa8a9ae792c1",
  "bytecode": "0x6101406040523480156200001257600080fd5b50604051620018a0380380620018a0833981810160405281019062000038919062000292565b858073ffffffffffffffffffffffffffffffffffffffff1660808173ffffffffffffffffffffffffffffffffffffffff1681525050508573ffffffffffffffffffffffffffffffffffffffff1660c08173ffffffffffffffffffffffffffffffffffffffff16815250508460a081815250508360e081815250508267ffffffffffffffff166101008167ffffffffffffffff16815250508163ffffffff166101208163ffffffff16815250506000600260146101000a81548160ff021916908360018111156200010d576200010c6200032e565b5b021790555042600381905550806001819055505050505050506200035d565b600080fd5b600073ffffffffffffffffffffffffffffffffffffffff82169050919050565b60006200015e8262000131565b9050919050565b620001708162000151565b81146200017c57600080fd5b50565b600081519050620001908162000165565b92915050565b6000819050919050565b620001ab8162000196565b8114620001b757600080fd5b50565b600081519050620001cb81620001a0565b92915050565b6000819050919050565b620001e681620001d1565b8114620001f257600080fd5b50565b6000815190506200020681620001db565b92915050565b600067ffffffffffffffff82169050919050565b6200022b816200020c565b81146200023757600080fd5b50565b6000815190506200024b8162000220565b92915050565b600063ffffffff82169050919050565b6200026c8162000251565b81146200027857600080fd5b50565b6000815190506200028c8162000261565b92915050565b60008060008060008060c08789031215620002b257620002b16200012c565b5b6000620002c289828a016200017f565b9650506020620002d589828a01620001ba565b9550506040620002e889828a01620001f5565b9450506060620002fb89828a016200023a565b93505060806200030e89828a016200027b565b92505060a06200032189828a01620001ba565b9150509295509295509295565b7f4e487b7100000000000000000000000000000000000000000000000000000000600052602160045260246000fd5b60805160a05160c05160e05161010051610120516114e5620003bb60003960006106f4015260006106d1015260006106b001526000610674015260008181610340015261044501526000818161038501526103d901526114e56000f3fe6080604052600436106100dd5760003560e01c8063473f1ddc1161007f5780636e04ff0d116100595780636e04ff0d1461026b57806391ad27b4146102a9578063e55ae4e8146102d4578063fd6673f514610311576100dd565b8063473f1ddc146101ea57806353a2c19a146102155780635f1b0fd814610240576100dd565b80631fe543e3116100bb5780631fe543e3146101635780632cfcc5391461018c5780632ef08152146101965780634585e33b146101c1576100dd565b806309bc33a7146100e2578063115cbaf51461010d57806312065fe014610138575b600080fd5b3480156100ee57600080fd5b506100f761033c565b6040516101049190610c66565b60405180910390f35b34801561011957600080fd5b50610122610364565b60405161012f9190610cf8565b60405180910390f35b34801561014457600080fd5b5061014d61037b565b60405161015a9190610c66565b60405180910390f35b34801561016f57600080fd5b5061018a60048036038101906101859190610eac565b610383565b005b610194610443565b005b3480156101a257600080fd5b506101ab6105b2565b6040516101b89190610c66565b60405180910390f35b3480156101cd57600080fd5b506101e860048036038101906101e39190610f63565b6105bc565b005b3480156101f657600080fd5b506101ff6107bc565b60405161020c9190610ff1565b60405180910390f35b34801561022157600080fd5b5061022a6107e6565b6040516102379190610c66565b60405180910390f35b34801561024c57600080fd5b506102556107f5565b6040516102629190610c66565b60405180910390f35b34801561027757600080fd5b50610292600480360381019061028d91906110c1565b610802565b6040516102a09291906111ad565b60405180910390f35b3480156102b557600080fd5b506102be610891565b6040516102cb9190610c66565b60405180910390f35b3480156102e057600080fd5b506102fb60048036038101906102f691906111dd565b61089b565b6040516103089190610ff1565b60405180910390f35b34801561031d57600080fd5b506103266108e2565b6040516103339190610c66565b60405180910390f35b60007f0000000000000000000000000000000000000000000000000000000000000000905090565b6000600260149054906101000a900460ff16905090565b600047905090565b7f000000000000000000000000000000000000000000000000000000000000000073ffffffffffffffffffffffffffffffffffffffff163373ffffffffffffffffffffffffffffffffffffffff161461043557337f00000000000000000000000000000000000000000000000000000000000000006040517f1cf993f400000000000000000000000000000000000000000000000000000000815260040161042c92919061120a565b60405180910390fd5b61043f82826108ee565b5050565b7f000000000000000000000000000000000000000000000000000000000000000034101561049d576040517f066d781f00000000000000000000000000000000000000000000000000000000815260040160405180910390fd5b600060018111156104b1576104b0610c81565b5b600260149054906101000a900460ff1660018111156104d3576104d2610c81565b5b1461050a576040517fd6e19a8d00000000000000000000000000000000000000000000000000000000815260040160405180910390fd5b6000339080600181540180825580915050600190039060005260206000200160009091909190916101000a81548173ffffffffffffffffffffffffffffffffffffffff021916908373ffffffffffffffffffffffffffffffffffffffff1602179055503373ffffffffffffffffffffffffffffffffffffffff167f0805e1d667bddb8a95f0f09880cf94f403fb596ce79928d9f29b74203ba284d460405160405180910390a2565b6000600354905090565b60006105d660405180602001604052806000815250610802565b509050806106455747600080549050600260149054906101000a900460ff16600181111561060757610606610c81565b5b6040517fc61de3e100000000000000000000000000000000000000000000000000000000815260040161063c93929190611233565b60405180910390fd5b6001600260146101000a81548160ff0219169083600181111561066b5761066a610c81565b5b021790555060007f000000000000000000000000000000000000000000000000000000000000000073ffffffffffffffffffffffffffffffffffffffff16635d3b1d307f00000000000000000000000000000000000000000000000000000000000000007f000000000000000000000000000000000000000000000000000000000000000060037f000000000000000000000000000000000000000000000000000000000000000060016040518663ffffffff1660e01b81526004016107359594939291906112e2565b602060405180830381600087803b15801561074f57600080fd5b505af1158015610763573d6000803e3d6000fd5b505050506040513d601f19601f82011682018060405250810190610787919061134a565b9050807f59dff046abf316dc71c157e4862c9eec29d6c72caaa92fee6e826b50497af35460405160405180910390a250505050565b6000600260009054906101000a900473ffffffffffffffffffffffffffffffffffffffff16905090565b6000600163ffffffff16905090565b6000600361ffff16905090565b600060606000600260149054906101000a900460ff16600181111561082a57610829610c81565b5b6000600181111561083e5761083d610c81565b5b14905060006001546003544261085491906113a6565b119050600080600080549050119050600080471190508280156108745750835b801561087d5750805b80156108865750815b955050505050915091565b6000600154905090565b60008082815481106108b0576108af6113da565b5b9060005260206000200160009054906101000a900473ffffffffffffffffffffffffffffffffffffffff169050919050565b60008080549050905090565b6000808054905082600081518110610909576109086113da565b5b602002602001015161091b9190611438565b90506000808281548110610932576109316113da565b5b9060005260206000200160009054906101000a900473ffffffffffffffffffffffffffffffffffffffff16905080600260006101000a81548173ffffffffffffffffffffffffffffffffffffffff021916908373ffffffffffffffffffffffffffffffffffffffff1602179055506000600260146101000a81548160ff021916908360018111156109c6576109c5610c81565b5b0217905550600067ffffffffffffffff8111156109e6576109e5610d69565b5b604051908082528060200260200182016040528015610a145781602001602082028036833780820191505090505b5060009080519060200190610a2a929190610ba6565b50426003819055506000600260009054906101000a900473ffffffffffffffffffffffffffffffffffffffff1673ffffffffffffffffffffffffffffffffffffffff1647604051610a7a9061149a565b60006040518083038185875af1925050503d8060008114610ab7576040519150601f19603f3d011682016040523d82523d6000602084013e610abc565b606091505b5050905080610af7576040517fa1d04b3900000000000000000000000000000000000000000000000000000000815260040160405180910390fd5b600260009054906101000a900473ffffffffffffffffffffffffffffffffffffffff1673ffffffffffffffffffffffffffffffffffffffff167f5b690ec4a06fe979403046eaeea5b3ce38524683c3001f662c8b5a829632f7df60405160405180910390a28173ffffffffffffffffffffffffffffffffffffffff167f5b690ec4a06fe979403046eaeea5b3ce38524683c3001f662c8b5a829632f7df60405160405180910390a25050505050565b828054828255906000526020600020908101928215610c1f579160200282015b82811115610c1e5782518260006101000a81548173ffffffffffffffffffffffffffffffffffffffff021916908373ffffffffffffffffffffffffffffffffffffffff16021790555091602001919060010190610bc6565b5b509050610c2c9190610c30565b5090565b5b80821115610c49576000816000905550600101610c31565b5090565b6000819050919050565b610c6081610c4d565b82525050565b6000602082019050610c7b6000830184610c57565b92915050565b7f4e487b7100000000000000000000000000000000000000000000000000000000600052602160045260246000fd5b60028110610cc157610cc0610c81565b5b50565b6000819050610cd282610cb0565b919050565b6000610ce282610cc4565b9050919050565b610cf281610cd7565b82525050565b6000602082019050610d0d6000830184610ce9565b92915050565b6000604051905090565b600080fd5b600080fd5b610d3081610c4d565b8114610d3b57600080fd5b50565b600081359050610d4d81610d27565b92915050565b600080fd5b6000601f19601f8301169050919050565b7f4e487b7100000000000000000000000000000000000000000000000000000000600052604160045260246000fd5b610da182610d58565b810181811067ffffffffffffffff82111715610dc057610dbf610d69565b5b80604052505050565b6000610dd3610d13565b9050610ddf8282610d98565b919050565b600067ffffffffffffffff821115610dff57610dfe610d69565b5b602082029050602081019050919050565b600080fd5b6000610e28610e2384610de4565b610dc9565b90508083825260208201905060208402830185811115610e4b57610e4a610e10565b5b835b81811015610e745780610e608882610d3e565b845260208401935050602081019050610e4d565b5050509392505050565b600082601f830112610e9357610e92610d53565b5b8135610ea3848260208601610e15565b91505092915050565b60008060408385031215610ec357610ec2610d1d565b5b6000610ed185828601610d3e565b925050602083013567ffffffffffffffff811115610ef257610ef1610d22565b5b610efe85828601610e7e565b9150509250929050565b600080fd5b60008083601f840112610f2357610f22610d53565b5b8235905067ffffffffffffffff811115610f4057610f3f610f08565b5b602083019150836001820283011115610f5c57610f5b610e10565b5b9250929050565b60008060208385031215610f7a57610f79610d1d565b5b600083013567ffffffffffffffff811115610f9857610f97610d22565b5b610fa485828601610f0d565b92509250509250929050565b600073ffffffffffffffffffffffffffffffffffffffff82169050919050565b6000610fdb82610fb0565b9050919050565b610feb81610fd0565b82525050565b60006020820190506110066000830184610fe2565b92915050565b600080fd5b600067ffffffffffffffff82111561102c5761102b610d69565b5b61103582610d58565b9050602081019050919050565b82818337600083830152505050565b600061106461105f84611011565b610dc9565b9050828152602081018484840111156110805761107f61100c565b5b61108b848285611042565b509392505050565b600082601f8301126110a8576110a7610d53565b5b81356110b8848260208601611051565b91505092915050565b6000602082840312156110d7576110d6610d1d565b5b600082013567ffffffffffffffff8111156110f5576110f4610d22565b5b61110184828501611093565b91505092915050565b60008115159050919050565b61111f8161110a565b82525050565b600081519050919050565b600082825260208201905092915050565b60005b8381101561115f578082015181840152602081019050611144565b8381111561116e576000848401525b50505050565b600061117f82611125565b6111898185611130565b9350611199818560208601611141565b6111a281610d58565b840191505092915050565b60006040820190506111c26000830185611116565b81810360208301526111d48184611174565b90509392505050565b6000602082840312156111f3576111f2610d1d565b5b600061120184828501610d3e565b91505092915050565b600060408201905061121f6000830185610fe2565b61122c6020830184610fe2565b9392505050565b60006060820190506112486000830186610c57565b6112556020830185610c57565b6112626040830184610c57565b949350505050565b6000819050919050565b61127d8161126a565b82525050565b600067ffffffffffffffff82169050919050565b6112a081611283565b82525050565b600061ffff82169050919050565b6112bd816112a6565b82525050565b600063ffffffff82169050919050565b6112dc816112c3565b82525050565b600060a0820190506112f76000830188611274565b6113046020830187611297565b61131160408301866112b4565b61131e60608301856112d3565b61132b60808301846112d3565b9695505050505050565b60008151905061134481610d27565b92915050565b6000602082840312156113605761135f610d1d565b5b600061136e84828501611335565b91505092915050565b7f4e487b7100000000000000000000000000000000000000000000000000000000600052601160045260246000fd5b60006113b182610c4d565b91506113bc83610c4d565b9250828210156113cf576113ce611377565b5b828203905092915050565b7f4e487b7100000000000000000000000000000000000000000000000000000000600052603260045260246000fd5b7f4e487b7100000000000000000000000000000000000000000000000000000000600052601260045260246000fd5b600061144382610c4d565b915061144e83610c4d565b92508261145e5761145d611409565b5b828206905092915050565b600081905092915050565b50565b6000611484600083611469565b915061148f82611474565b600082019050919050565b60006114a582611477565b915081905091905056fea2646970667358221220a9748e0d79a1685caf44fc5ca00882bcdc6223cca5b4c6966eec5fcadf31291464736f6c63430008090033",
  "devdoc": {
    "author": "Leander D'silva",
    "details": "This is implements Chainlink vrf v2 and Chainlink keepers",
    "kind": "dev",
    "methods": {},
    "title": "a sample Raffle smart contract",
    "version": 1
  },
  "userdoc": {
    "kind": "user",
    "methods": {},
    "notice": "This contract is to create an untamperable decentralized smart contract",
    "version": 1
  },
  "storageLayout": {
    "storage": [
      {
        "astId": 197,
        "contract": "contracts/Lottery.sol:Raffle",
        "label": "s_players",
        "offset": 0,
        "slot": "0",
        "type": "t_array(t_address_payable)dyn_storage"
      },
      {
        "astId": 214,
        "contract": "contracts/Lottery.sol:Raffle",
        "label": "i_interval",
        "offset": 0,
        "slot": "1",
        "type": "t_uint256"
      },
      {
        "astId": 216,
        "contract": "contracts/Lottery.sol:Raffle",
        "label": "s_recentWinner",
        "offset": 0,
        "slot": "2",
        "type": "t_address"
      },
      {
        "astId": 219,
        "contract": "contracts/Lottery.sol:Raffle",
        "label": "s_raffleState",
        "offset": 20,
        "slot": "2",
        "type": "t_enum(RaffleState)192"
      },
      {
        "astId": 221,
        "contract": "contracts/Lottery.sol:Raffle",
        "label": "s_lastTimeStamp",
        "offset": 0,
        "slot": "3",
        "type": "t_uint256"
      }
    ],
    "types": {
      "t_address": {
        "encoding": "inplace",
        "label": "address",
        "numberOfBytes": "20"
      },
      "t_address_payable": {
        "encoding": "inplace",
        "label": "address payable",
        "numberOfBytes": "20"
      },
      "t_array(t_address_payable)dyn_storage": {
        "base": "t_address_payable",
        "encoding": "dynamic_array",
        "label": "address payable[]",
        "numberOfBytes": "32"
      },
      "t_enum(RaffleState)192": {
        "encoding": "inplace",
        "label": "enum Raffle.RaffleState",
        "numberOfBytes": "1"
      },
      "t_uint256": {
        "encoding": "inplace",
        "label": "uint256",
        "numberOfBytes": "32"
      }
    }
  }
}