{
  "address": "0xA8335C4F329826604ADcCc1bAA115d07D4a221FB",
  "abi": [
    {
      "inputs": [
        {
          "internalType": "address",
          "name": "vrfCoordinatorV2",
          "type": "address"
        },
        {
          "internalType": "uint256",
          "name": "entryFee",
          "type": "uint256"
        },
        {
          "internalType": "bytes32",
          "name": "gasLane",
          "type": "bytes32"
        },
        {
          "internalType": "uint64",
          "name": "subscriptionId",
          "type": "uint64"
        },
        {
          "internalType": "uint32",
          "name": "callBackGassLimit",
          "type": "uint32"
        },
        {
          "internalType": "uint256",
          "name": "interval",
          "type": "uint256"
        }
      ],
      "stateMutability": "nonpayable",
      "type": "constructor"
    },
    {
      "inputs": [
        {
          "internalType": "address",
          "name": "have",
          "type": "address"
        },
        {
          "internalType": "address",
          "name": "want",
          "type": "address"
        }
      ],
      "name": "OnlyCoordinatorCanFulfill",
      "type": "error"
    },
    {
      "inputs": [],
      "name": "Raffle_NotOpen",
      "type": "error"
    },
    {
      "inputs": [
        {
          "internalType": "uint256",
          "name": "currentBalance",
          "type": "uint256"
        },
        {
          "internalType": "uint256",
          "name": "numPlayers",
          "type": "uint256"
        },
        {
          "internalType": "uint256",
          "name": "raffleState",
          "type": "uint256"
        }
      ],
      "name": "Raffle_UpKeepNotNeeded",
      "type": "error"
    },
    {
      "inputs": [],
      "name": "Raffle__NotEnoughEthEntered",
      "type": "error"
    },
    {
      "inputs": [],
      "name": "Raffle__TransferFailed",
      "type": "error"
    },
    {
      "anonymous": false,
      "inputs": [
        {
          "indexed": true,
          "internalType": "address",
          "name": "player",
          "type": "address"
        }
      ],
      "name": "RaffleEnter",
      "type": "event"
    },
    {
      "anonymous": false,
      "inputs": [
        {
          "indexed": true,
          "internalType": "uint256",
          "name": "requestId",
          "type": "uint256"
        }
      ],
      "name": "RequestedRafleWinner",
      "type": "event"
    },
    {
      "anonymous": false,
      "inputs": [
        {
          "indexed": true,
          "internalType": "address",
          "name": "winner",
          "type": "address"
        }
      ],
      "name": "WinnerPicked",
      "type": "event"
    },
    {
      "inputs": [
        {
          "internalType": "bytes",
          "name": "",
          "type": "bytes"
        }
      ],
      "name": "checkUpkeep",
      "outputs": [
        {
          "internalType": "bool",
          "name": "upkeepNeeded",
          "type": "bool"
        },
        {
          "internalType": "bytes",
          "name": "",
          "type": "bytes"
        }
      ],
      "stateMutability": "view",
      "type": "function"
    },
    {
      "inputs": [],
      "name": "enterRaffle",
      "outputs": [],
      "stateMutability": "payable",
      "type": "function"
    },
    {
      "inputs": [],
      "name": "getEntranceFee",
      "outputs": [
        {
          "internalType": "uint256",
          "name": "",
          "type": "uint256"
        }
      ],
      "stateMutability": "view",
      "type": "function"
    },
    {
      "inputs": [],
      "name": "getInterval",
      "outputs": [
        {
          "internalType": "uint256",
          "name": "",
          "type": "uint256"
        }
      ],
      "stateMutability": "view",
      "type": "function"
    },
    {
      "inputs": [],
      "name": "getLatestTimeStamps",
      "outputs": [
        {
          "internalType": "uint256",
          "name": "",
          "type": "uint256"
        }
      ],
      "stateMutability": "view",
      "type": "function"
    },
    {
      "inputs": [],
      "name": "getNumWords",
      "outputs": [
        {
          "internalType": "uint256",
          "name": "",
          "type": "uint256"
        }
      ],
      "stateMutability": "pure",
      "type": "function"
    },
    {
      "inputs": [],
      "name": "getNumberOfPlayers",
      "outputs": [
        {
          "internalType": "uint256",
          "name": "",
          "type": "uint256"
        }
      ],
      "stateMutability": "view",
      "type": "function"
    },
    {
      "inputs": [
        {
          "internalType": "uint256",
          "name": "index",
          "type": "uint256"
        }
      ],
      "name": "getPlayer",
      "outputs": [
        {
          "internalType": "address",
          "name": "",
          "type": "address"
        }
      ],
      "stateMutability": "view",
      "type": "function"
    },
    {
      "inputs": [],
      "name": "getRaffleState",
      "outputs": [
        {
          "internalType": "enum Raffle.RaffleState",
          "name": "",
          "type": "uint8"
        }
      ],
      "stateMutability": "view",
      "type": "function"
    },
    {
      "inputs": [],
      "name": "getRecentWinner",
      "outputs": [
        {
          "internalType": "address",
          "name": "",
          "type": "address"
        }
      ],
      "stateMutability": "view",
      "type": "function"
    },
    {
      "inputs": [],
      "name": "getRequestConfirmations",
      "outputs": [
        {
          "internalType": "uint256",
          "name": "",
          "type": "uint256"
        }
      ],
      "stateMutability": "pure",
      "type": "function"
    },
    {
      "inputs": [
        {
          "internalType": "bytes",
          "name": "",
          "type": "bytes"
        }
      ],
      "name": "performUpkeep",
      "outputs": [],
      "stateMutability": "nonpayable",
      "type": "function"
    },
    {
      "inputs": [
        {
          "internalType": "uint256",
          "name": "requestId",
          "type": "uint256"
        },
        {
          "internalType": "uint256[]",
          "name": "randomWords",
          "type": "uint256[]"
        }
      ],
      "name": "rawFulfillRandomWords",
      "outputs": [],
      "stateMutability": "nonpayable",
      "type": "function"
    }
  ],
  "transactionHash": "0xf1529f3c10bfcaa59054ab54ed9354b413250b6e61dda7453f3eadc12b84bbd3",
  "args": [
    "0x2Ca8E0C643bDe4C2E08ab1fA0da3401AdAD7734D",
    "10000000000000000",
    "0x79d3d8832d904592c0bf9818b621522c988bb8b0c05cdc3b15aea1b6e8db0c15",
    "1407",
    "500000",
    "30"
  ],
  "numDeployments": 3,
  "solcInputHash": "0adcbd4a4599b70769c330c6821a5179",
  "bytecode": "0x6101406040523480156200001257600080fd5b50604051620017cb380380620017cb833981810160405281019062000038919062000292565b858073ffffffffffffffffffffffffffffffffffffffff1660808173ffffffffffffffffffffffffffffffffffffffff1681525050508573ffffffffffffffffffffffffffffffffffffffff1660c08173ffffffffffffffffffffffffffffffffffffffff16815250508460a081815250508360e081815250508267ffffffffffffffff166101008167ffffffffffffffff16815250508163ffffffff166101208163ffffffff16815250506000600260146101000a81548160ff021916908360018111156200010d576200010c6200032e565b5b021790555042600381905550806001819055505050505050506200035d565b600080fd5b600073ffffffffffffffffffffffffffffffffffffffff82169050919050565b60006200015e8262000131565b9050919050565b620001708162000151565b81146200017c57600080fd5b50565b600081519050620001908162000165565b92915050565b6000819050919050565b620001ab8162000196565b8114620001b757600080fd5b50565b600081519050620001cb81620001a0565b92915050565b6000819050919050565b620001e681620001d1565b8114620001f257600080fd5b50565b6000815190506200020681620001db565b92915050565b600067ffffffffffffffff82169050919050565b6200022b816200020c565b81146200023757600080fd5b50565b6000815190506200024b8162000220565b92915050565b600063ffffffff82169050919050565b6200026c8162000251565b81146200027857600080fd5b50565b6000815190506200028c8162000261565b92915050565b60008060008060008060c08789031215620002b257620002b16200012c565b5b6000620002c289828a016200017f565b9650506020620002d589828a01620001ba565b9550506040620002e889828a01620001f5565b9450506060620002fb89828a016200023a565b93505060806200030e89828a016200027b565b92505060a06200032189828a01620001ba565b9150509295509295509295565b7f4e487b7100000000000000000000000000000000000000000000000000000000600052602160045260246000fd5b60805160a05160c05160e0516101005161012051611410620003bb60003960006106a60152600061068301526000610662015260006106260152600081816102fa01526103f7015260008181610337015261038b01526114106000f3fe6080604052600436106100c25760003560e01c8063473f1ddc1161007f5780636e04ff0d116100595780636e04ff0d1461022557806391ad27b414610263578063e55ae4e81461028e578063fd6673f5146102cb576100c2565b8063473f1ddc146101a457806353a2c19a146101cf5780635f1b0fd8146101fa576100c2565b806309bc33a7146100c7578063115cbaf5146100f25780631fe543e31461011d5780632cfcc539146101465780632ef08152146101505780634585e33b1461017b575b600080fd5b3480156100d357600080fd5b506100dc6102f6565b6040516100e99190610b91565b60405180910390f35b3480156100fe57600080fd5b5061010761031e565b6040516101149190610c23565b60405180910390f35b34801561012957600080fd5b50610144600480360381019061013f9190610dd7565b610335565b005b61014e6103f5565b005b34801561015c57600080fd5b50610165610564565b6040516101729190610b91565b60405180910390f35b34801561018757600080fd5b506101a2600480360381019061019d9190610e8e565b61056e565b005b3480156101b057600080fd5b506101b961076e565b6040516101c69190610f1c565b60405180910390f35b3480156101db57600080fd5b506101e4610798565b6040516101f19190610b91565b60405180910390f35b34801561020657600080fd5b5061020f6107a7565b60405161021c9190610b91565b60405180910390f35b34801561023157600080fd5b5061024c60048036038101906102479190610fec565b6107b4565b60405161025a9291906110d8565b60405180910390f35b34801561026f57600080fd5b50610278610843565b6040516102859190610b91565b60405180910390f35b34801561029a57600080fd5b506102b560048036038101906102b09190611108565b61084d565b6040516102c29190610f1c565b60405180910390f35b3480156102d757600080fd5b506102e0610894565b6040516102ed9190610b91565b60405180910390f35b60007f0000000000000000000000000000000000000000000000000000000000000000905090565b6000600260149054906101000a900460ff16905090565b7f000000000000000000000000000000000000000000000000000000000000000073ffffffffffffffffffffffffffffffffffffffff163373ffffffffffffffffffffffffffffffffffffffff16146103e757337f00000000000000000000000000000000000000000000000000000000000000006040517f1cf993f40000000000000000000000000000000000000000000000000000000081526004016103de929190611135565b60405180910390fd5b6103f182826108a0565b5050565b7f000000000000000000000000000000000000000000000000000000000000000034101561044f576040517f066d781f00000000000000000000000000000000000000000000000000000000815260040160405180910390fd5b6000600181111561046357610462610bac565b5b600260149054906101000a900460ff16600181111561048557610484610bac565b5b146104bc576040517fd6e19a8d00000000000000000000000000000000000000000000000000000000815260040160405180910390fd5b6000339080600181540180825580915050600190039060005260206000200160009091909190916101000a81548173ffffffffffffffffffffffffffffffffffffffff021916908373ffffffffffffffffffffffffffffffffffffffff1602179055503373ffffffffffffffffffffffffffffffffffffffff167f0805e1d667bddb8a95f0f09880cf94f403fb596ce79928d9f29b74203ba284d460405160405180910390a2565b6000600354905090565b6000610588604051806020016040528060008152506107b4565b509050806105f75747600080549050600260149054906101000a900460ff1660018111156105b9576105b8610bac565b5b6040517fc61de3e10000000000000000000000000000000000000000000000000000000081526004016105ee9392919061115e565b60405180910390fd5b6001600260146101000a81548160ff0219169083600181111561061d5761061c610bac565b5b021790555060007f000000000000000000000000000000000000000000000000000000000000000073ffffffffffffffffffffffffffffffffffffffff16635d3b1d307f00000000000000000000000000000000000000000000000000000000000000007f000000000000000000000000000000000000000000000000000000000000000060037f000000000000000000000000000000000000000000000000000000000000000060016040518663ffffffff1660e01b81526004016106e795949392919061120d565b602060405180830381600087803b15801561070157600080fd5b505af1158015610715573d6000803e3d6000fd5b505050506040513d601f19601f820116820180604052508101906107399190611275565b9050807f59dff046abf316dc71c157e4862c9eec29d6c72caaa92fee6e826b50497af35460405160405180910390a250505050565b6000600260009054906101000a900473ffffffffffffffffffffffffffffffffffffffff16905090565b6000600163ffffffff16905090565b6000600361ffff16905090565b600060606000600260149054906101000a900460ff1660018111156107dc576107db610bac565b5b600060018111156107f0576107ef610bac565b5b14905060006001546003544261080691906112d1565b119050600080600080549050119050600080471190508280156108265750835b801561082f5750805b80156108385750815b955050505050915091565b6000600154905090565b600080828154811061086257610861611305565b5b9060005260206000200160009054906101000a900473ffffffffffffffffffffffffffffffffffffffff169050919050565b60008080549050905090565b60008080549050826000815181106108bb576108ba611305565b5b60200260200101516108cd9190611363565b905060008082815481106108e4576108e3611305565b5b9060005260206000200160009054906101000a900473ffffffffffffffffffffffffffffffffffffffff16905080600260006101000a81548173ffffffffffffffffffffffffffffffffffffffff021916908373ffffffffffffffffffffffffffffffffffffffff1602179055506000600260146101000a81548160ff0219169083600181111561097857610977610bac565b5b0217905550600067ffffffffffffffff81111561099857610997610c94565b5b6040519080825280602002602001820160405280156109c65781602001602082028036833780820191505090505b50600090805190602001906109dc929190610ad1565b504260038190555060008173ffffffffffffffffffffffffffffffffffffffff1647604051610a0a906113c5565b60006040518083038185875af1925050503d8060008114610a47576040519150601f19603f3d011682016040523d82523d6000602084013e610a4c565b606091505b5050905080610a87576040517fa1d04b3900000000000000000000000000000000000000000000000000000000815260040160405180910390fd5b8173ffffffffffffffffffffffffffffffffffffffff167f5b690ec4a06fe979403046eaeea5b3ce38524683c3001f662c8b5a829632f7df60405160405180910390a25050505050565b828054828255906000526020600020908101928215610b4a579160200282015b82811115610b495782518260006101000a81548173ffffffffffffffffffffffffffffffffffffffff021916908373ffffffffffffffffffffffffffffffffffffffff16021790555091602001919060010190610af1565b5b509050610b579190610b5b565b5090565b5b80821115610b74576000816000905550600101610b5c565b5090565b6000819050919050565b610b8b81610b78565b82525050565b6000602082019050610ba66000830184610b82565b92915050565b7f4e487b7100000000000000000000000000000000000000000000000000000000600052602160045260246000fd5b60028110610bec57610beb610bac565b5b50565b6000819050610bfd82610bdb565b919050565b6000610c0d82610bef565b9050919050565b610c1d81610c02565b82525050565b6000602082019050610c386000830184610c14565b92915050565b6000604051905090565b600080fd5b600080fd5b610c5b81610b78565b8114610c6657600080fd5b50565b600081359050610c7881610c52565b92915050565b600080fd5b6000601f19601f8301169050919050565b7f4e487b7100000000000000000000000000000000000000000000000000000000600052604160045260246000fd5b610ccc82610c83565b810181811067ffffffffffffffff82111715610ceb57610cea610c94565b5b80604052505050565b6000610cfe610c3e565b9050610d0a8282610cc3565b919050565b600067ffffffffffffffff821115610d2a57610d29610c94565b5b602082029050602081019050919050565b600080fd5b6000610d53610d4e84610d0f565b610cf4565b90508083825260208201905060208402830185811115610d7657610d75610d3b565b5b835b81811015610d9f5780610d8b8882610c69565b845260208401935050602081019050610d78565b5050509392505050565b600082601f830112610dbe57610dbd610c7e565b5b8135610dce848260208601610d40565b91505092915050565b60008060408385031215610dee57610ded610c48565b5b6000610dfc85828601610c69565b925050602083013567ffffffffffffffff811115610e1d57610e1c610c4d565b5b610e2985828601610da9565b9150509250929050565b600080fd5b60008083601f840112610e4e57610e4d610c7e565b5b8235905067ffffffffffffffff811115610e6b57610e6a610e33565b5b602083019150836001820283011115610e8757610e86610d3b565b5b9250929050565b60008060208385031215610ea557610ea4610c48565b5b600083013567ffffffffffffffff811115610ec357610ec2610c4d565b5b610ecf85828601610e38565b92509250509250929050565b600073ffffffffffffffffffffffffffffffffffffffff82169050919050565b6000610f0682610edb565b9050919050565b610f1681610efb565b82525050565b6000602082019050610f316000830184610f0d565b92915050565b600080fd5b600067ffffffffffffffff821115610f5757610f56610c94565b5b610f6082610c83565b9050602081019050919050565b82818337600083830152505050565b6000610f8f610f8a84610f3c565b610cf4565b905082815260208101848484011115610fab57610faa610f37565b5b610fb6848285610f6d565b509392505050565b600082601f830112610fd357610fd2610c7e565b5b8135610fe3848260208601610f7c565b91505092915050565b60006020828403121561100257611001610c48565b5b600082013567ffffffffffffffff8111156110205761101f610c4d565b5b61102c84828501610fbe565b91505092915050565b60008115159050919050565b61104a81611035565b82525050565b600081519050919050565b600082825260208201905092915050565b60005b8381101561108a57808201518184015260208101905061106f565b83811115611099576000848401525b50505050565b60006110aa82611050565b6110b4818561105b565b93506110c481856020860161106c565b6110cd81610c83565b840191505092915050565b60006040820190506110ed6000830185611041565b81810360208301526110ff818461109f565b90509392505050565b60006020828403121561111e5761111d610c48565b5b600061112c84828501610c69565b91505092915050565b600060408201905061114a6000830185610f0d565b6111576020830184610f0d565b9392505050565b60006060820190506111736000830186610b82565b6111806020830185610b82565b61118d6040830184610b82565b949350505050565b6000819050919050565b6111a881611195565b82525050565b600067ffffffffffffffff82169050919050565b6111cb816111ae565b82525050565b600061ffff82169050919050565b6111e8816111d1565b82525050565b600063ffffffff82169050919050565b611207816111ee565b82525050565b600060a082019050611222600083018861119f565b61122f60208301876111c2565b61123c60408301866111df565b61124960608301856111fe565b61125660808301846111fe565b9695505050505050565b60008151905061126f81610c52565b92915050565b60006020828403121561128b5761128a610c48565b5b600061129984828501611260565b91505092915050565b7f4e487b7100000000000000000000000000000000000000000000000000000000600052601160045260246000fd5b60006112dc82610b78565b91506112e783610b78565b9250828210156112fa576112f96112a2565b5b828203905092915050565b7f4e487b7100000000000000000000000000000000000000000000000000000000600052603260045260246000fd5b7f4e487b7100000000000000000000000000000000000000000000000000000000600052601260045260246000fd5b600061136e82610b78565b915061137983610b78565b92508261138957611388611334565b5b828206905092915050565b600081905092915050565b50565b60006113af600083611394565b91506113ba8261139f565b600082019050919050565b60006113d0826113a2565b915081905091905056fea264697066735822122096fff50049ace95982398de3f8eea7f7622e7583350f6386064669213ddd637564736f6c63430008090033",
  "devdoc": {
    "author": "Leander D'silva",
    "details": "This is implements Chainlink vrf v2 and Chainlink keepers",
    "kind": "dev",
    "methods": {},
    "title": "a sample Raffle smart contract",
    "version": 1
  },
  "userdoc": {
    "kind": "user",
    "methods": {},
    "notice": "This contract is to create an untamperable decentralized smart contract",
    "version": 1
  },
  "storageLayout": {
    "storage": [
      {
        "astId": 197,
        "contract": "contracts/Lottery.sol:Raffle",
        "label": "s_players",
        "offset": 0,
        "slot": "0",
        "type": "t_array(t_address_payable)dyn_storage"
      },
      {
        "astId": 214,
        "contract": "contracts/Lottery.sol:Raffle",
        "label": "i_interval",
        "offset": 0,
        "slot": "1",
        "type": "t_uint256"
      },
      {
        "astId": 216,
        "contract": "contracts/Lottery.sol:Raffle",
        "label": "s_recentWinner",
        "offset": 0,
        "slot": "2",
        "type": "t_address"
      },
      {
        "astId": 219,
        "contract": "contracts/Lottery.sol:Raffle",
        "label": "s_raffleState",
        "offset": 20,
        "slot": "2",
        "type": "t_enum(RaffleState)192"
      },
      {
        "astId": 221,
        "contract": "contracts/Lottery.sol:Raffle",
        "label": "s_lastTimeStamp",
        "offset": 0,
        "slot": "3",
        "type": "t_uint256"
      }
    ],
    "types": {
      "t_address": {
        "encoding": "inplace",
        "label": "address",
        "numberOfBytes": "20"
      },
      "t_address_payable": {
        "encoding": "inplace",
        "label": "address payable",
        "numberOfBytes": "20"
      },
      "t_array(t_address_payable)dyn_storage": {
        "base": "t_address_payable",
        "encoding": "dynamic_array",
        "label": "address payable[]",
        "numberOfBytes": "32"
      },
      "t_enum(RaffleState)192": {
        "encoding": "inplace",
        "label": "enum Raffle.RaffleState",
        "numberOfBytes": "1"
      },
      "t_uint256": {
        "encoding": "inplace",
        "label": "uint256",
        "numberOfBytes": "32"
      }
    }
  }
}